{
  "contractName": "MattAuction",
  "abi": [
    {
      "inputs": [],
      "stateMutability": "nonpayable",
      "type": "constructor"
    },
    {
      "inputs": [
        {
          "internalType": "bytes32",
          "name": "nftData",
          "type": "bytes32"
        },
        {
          "internalType": "uint256",
          "name": "endTime",
          "type": "uint256"
        },
        {
          "internalType": "address",
          "name": "token",
          "type": "address"
        },
        {
          "internalType": "address",
          "name": "owner",
          "type": "address"
        }
      ],
      "name": "startAuction",
      "outputs": [],
      "stateMutability": "nonpayable",
      "type": "function"
    },
    {
      "inputs": [
        {
          "internalType": "bytes32",
          "name": "nftData",
          "type": "bytes32"
        },
        {
          "components": [
            {
              "components": [
                {
                  "internalType": "uint256",
                  "name": "nft",
                  "type": "uint256"
                },
                {
                  "internalType": "address",
                  "name": "bidderAddress",
                  "type": "address"
                },
                {
                  "internalType": "address",
                  "name": "currencyTokenAddress",
                  "type": "address"
                },
                {
                  "internalType": "uint256",
                  "name": "currencyTokenAmount",
                  "type": "uint256"
                }
              ],
              "internalType": "struct MattAuction.Bid",
              "name": "bid",
              "type": "tuple"
            },
            {
              "internalType": "bytes",
              "name": "sig",
              "type": "bytes"
            }
          ],
          "internalType": "struct MattAuction.SignedBid[]",
          "name": "signedBids",
          "type": "tuple[]"
        }
      ],
      "name": "endAuction",
      "outputs": [],
      "stateMutability": "nonpayable",
      "type": "function"
    },
    {
      "inputs": [],
      "name": "getDomainTypehash",
      "outputs": [
        {
          "internalType": "bytes32",
          "name": "",
          "type": "bytes32"
        }
      ],
      "stateMutability": "pure",
      "type": "function"
    },
    {
      "inputs": [
        {
          "internalType": "string",
          "name": "contractName",
          "type": "string"
        },
        {
          "internalType": "string",
          "name": "version",
          "type": "string"
        },
        {
          "internalType": "uint256",
          "name": "chainId",
          "type": "uint256"
        },
        {
          "internalType": "address",
          "name": "verifyingContract",
          "type": "address"
        }
      ],
      "name": "getEIP712DomainHash",
      "outputs": [
        {
          "internalType": "bytes32",
          "name": "",
          "type": "bytes32"
        }
      ],
      "stateMutability": "pure",
      "type": "function"
    },
    {
      "inputs": [],
      "name": "getPacketTypehash",
      "outputs": [
        {
          "internalType": "bytes32",
          "name": "",
          "type": "bytes32"
        }
      ],
      "stateMutability": "pure",
      "type": "function"
    },
    {
      "inputs": [
        {
          "internalType": "uint256",
          "name": "nft",
          "type": "uint256"
        },
        {
          "internalType": "address",
          "name": "bidderAddress",
          "type": "address"
        },
        {
          "internalType": "address",
          "name": "currencyTokenAddress",
          "type": "address"
        },
        {
          "internalType": "uint256",
          "name": "currencyTokenAmount",
          "type": "uint256"
        }
      ],
      "name": "getPacketHash",
      "outputs": [
        {
          "internalType": "bytes32",
          "name": "",
          "type": "bytes32"
        }
      ],
      "stateMutability": "pure",
      "type": "function"
    },
    {
      "inputs": [
        {
          "internalType": "uint256",
          "name": "nft",
          "type": "uint256"
        },
        {
          "internalType": "address",
          "name": "bidderAddress",
          "type": "address"
        },
        {
          "internalType": "address",
          "name": "currencyTokenAddress",
          "type": "address"
        },
        {
          "internalType": "uint256",
          "name": "currencyTokenAmount",
          "type": "uint256"
        }
      ],
      "name": "getTypedDataHash",
      "outputs": [
        {
          "internalType": "bytes32",
          "name": "",
          "type": "bytes32"
        }
      ],
      "stateMutability": "view",
      "type": "function"
    },
    {
      "inputs": [
        {
          "internalType": "uint256",
          "name": "nft",
          "type": "uint256"
        },
        {
          "internalType": "address",
          "name": "bidderAddress",
          "type": "address"
        },
        {
          "internalType": "address",
          "name": "currencyTokenAddress",
          "type": "address"
        },
        {
          "internalType": "uint256",
          "name": "currencyTokenAmount",
          "type": "uint256"
        },
        {
          "internalType": "bytes",
          "name": "offchainSignature",
          "type": "bytes"
        }
      ],
      "name": "verifyBidSignature",
      "outputs": [
        {
          "internalType": "bool",
          "name": "",
          "type": "bool"
        }
      ],
      "stateMutability": "view",
      "type": "function"
    }
  ],
  "bytecode": "0x608060405234801561001057600080fd5b50611539806100206000396000f3fe608060405234801561001057600080fd5b50600436106100885760003560e01c8063b693f1521161005b578063b693f15214610113578063d327c1eb14610143578063d54ae89a14610173578063e4b610b41461019157610088565b80636eecb7c21461008d57806379ff8ef0146100ab5780637a2dfc3a146100db5780638d997eb8146100f7575b600080fd5b6100956101c1565b6040516100a29190610a17565b60405180910390f35b6100c560048036038101906100c09190610c20565b6101e9565b6040516100d29190610cd2565b60405180910390f35b6100f560048036038101906100f09190610d79565b610285565b005b610111600480360381019061010c9190610dd9565b610662565b005b61012d60048036038101906101289190610e40565b610785565b60405161013a9190610a17565b60405180910390f35b61015d60048036038101906101589190610f48565b6107e0565b60405161016a9190610a17565b60405180910390f35b61017b610849565b6040516101889190610a17565b60405180910390f35b6101ab60048036038101906101a69190610e40565b610871565b6040516101b89190610a17565b60405180910390f35b60007f8b73c3c69bb8fe3d512ecc4cf759cc79239f7b179b0ffacaa9a75d522b39400f905090565b6000806101f887878787610871565b90506000610206828561092b565b90508073ffffffffffffffffffffffffffffffffffffffff168773ffffffffffffffffffffffffffffffffffffffff1614610276576040517f08c379a000000000000000000000000000000000000000000000000000000000815260040161026d90611044565b60405180910390fd5b60019250505095945050505050565b6000806000858152602001908152602001600020604051806080016040529081600082015481526020016001820160009054906101000a900473ffffffffffffffffffffffffffffffffffffffff1673ffffffffffffffffffffffffffffffffffffffff1673ffffffffffffffffffffffffffffffffffffffff1681526020016002820160009054906101000a900473ffffffffffffffffffffffffffffffffffffffff1673ffffffffffffffffffffffffffffffffffffffff1673ffffffffffffffffffffffffffffffffffffffff1681526020016002820160149054906101000a900460ff1615151515815250509050806020015173ffffffffffffffffffffffffffffffffffffffff163373ffffffffffffffffffffffffffffffffffffffff16146103b7576103b6611064565b5b6000838360008181106103cd576103cc611093565b5b90506020028101906103df91906110c7565b60000160600135905060005b8484905081101561057b57600085858381811061040b5761040a611093565b5b905060200281019061041d91906110c7565b610426906111dd565b905082816000015160600151101561044157610440611064565b5b836040015173ffffffffffffffffffffffffffffffffffffffff1681600001516040015173ffffffffffffffffffffffffffffffffffffffff161461048957610488611064565b5b6104ba81600001516000015182600001516020015183600001516040015184600001516060015185602001516101e9565b6104c7576104c6611064565b5b836040015173ffffffffffffffffffffffffffffffffffffffff166323b872dd8260000151604001518660200151866040518463ffffffff1660e01b81526004016105149392919061120e565b602060405180830381600087803b15801561052e57600080fd5b505af1158015610542573d6000803e3d6000fd5b505050506040513d601f19601f820116820180604052508101906105669190611271565b50508080610573906112cd565b9150506103eb565b506000826060019015159081151581525050816000808781526020019081526020016000206000820151816000015560208201518160010160006101000a81548173ffffffffffffffffffffffffffffffffffffffff021916908373ffffffffffffffffffffffffffffffffffffffff16021790555060408201518160020160006101000a81548173ffffffffffffffffffffffffffffffffffffffff021916908373ffffffffffffffffffffffffffffffffffffffff16021790555060608201518160020160146101000a81548160ff0219169083151502179055509050505050505050565b60405180608001604052808481526020018273ffffffffffffffffffffffffffffffffffffffff1681526020018373ffffffffffffffffffffffffffffffffffffffff168152602001600115158152506000808681526020019081526020016000206000820151816000015560208201518160010160006101000a81548173ffffffffffffffffffffffffffffffffffffffff021916908373ffffffffffffffffffffffffffffffffffffffff16021790555060408201518160020160006101000a81548173ffffffffffffffffffffffffffffffffffffffff021916908373ffffffffffffffffffffffffffffffffffffffff16021790555060608201518160020160146101000a81548160ff02191690831515021790555090505050505050565b60007f29fdf943cbbb0de7c36321c5b077cc9217f260d5b8c93cc6516bf581b7d60de4858585856040516020016107c0959493929190611316565b604051602081830303815290604052805190602001209050949350505050565b60007f8b73c3c69bb8fe3d512ecc4cf759cc79239f7b179b0ffacaa9a75d522b39400f858051906020012085805190602001208585604051602001610829959493929190611369565b604051602081830303815290604052805190602001209050949350505050565b60007f29fdf943cbbb0de7c36321c5b077cc9217f260d5b8c93cc6516bf581b7d60de4905090565b6000806108ea6040518060400160405280600b81526020017f4d61747441756374696f6e0000000000000000000000000000000000000000008152506040518060400160405280600181526020017f310000000000000000000000000000000000000000000000000000000000000081525046306107e0565b6108f687878787610785565b604051602001610907929190611434565b60405160208183030381529060405280519060200120905080915050949350505050565b600080600080604185511461094657600093505050506109f8565b6020850151925060408501519150606085015160001a9050601b8160ff16101561097a57601b816109779190611478565b90505b601b8160ff16141580156109925750601c8160ff1614155b156109a357600093505050506109f8565b600186828585604051600081526020016040526040516109c694939291906114be565b6020604051602081039080840390855afa1580156109e8573d6000803e3d6000fd5b5050506020604051035193505050505b92915050565b6000819050919050565b610a11816109fe565b82525050565b6000602082019050610a2c6000830184610a08565b92915050565b6000604051905090565b600080fd5b600080fd5b6000819050919050565b610a5981610a46565b8114610a6457600080fd5b50565b600081359050610a7681610a50565b92915050565b600073ffffffffffffffffffffffffffffffffffffffff82169050919050565b6000610aa782610a7c565b9050919050565b610ab781610a9c565b8114610ac257600080fd5b50565b600081359050610ad481610aae565b92915050565b600080fd5b600080fd5b6000601f19601f8301169050919050565b7f4e487b7100000000000000000000000000000000000000000000000000000000600052604160045260246000fd5b610b2d82610ae4565b810181811067ffffffffffffffff82111715610b4c57610b4b610af5565b5b80604052505050565b6000610b5f610a32565b9050610b6b8282610b24565b919050565b600067ffffffffffffffff821115610b8b57610b8a610af5565b5b610b9482610ae4565b9050602081019050919050565b82818337600083830152505050565b6000610bc3610bbe84610b70565b610b55565b905082815260208101848484011115610bdf57610bde610adf565b5b610bea848285610ba1565b509392505050565b600082601f830112610c0757610c06610ada565b5b8135610c17848260208601610bb0565b91505092915050565b600080600080600060a08688031215610c3c57610c3b610a3c565b5b6000610c4a88828901610a67565b9550506020610c5b88828901610ac5565b9450506040610c6c88828901610ac5565b9350506060610c7d88828901610a67565b925050608086013567ffffffffffffffff811115610c9e57610c9d610a41565b5b610caa88828901610bf2565b9150509295509295909350565b60008115159050919050565b610ccc81610cb7565b82525050565b6000602082019050610ce76000830184610cc3565b92915050565b610cf6816109fe565b8114610d0157600080fd5b50565b600081359050610d1381610ced565b92915050565b600080fd5b600080fd5b60008083601f840112610d3957610d38610ada565b5b8235905067ffffffffffffffff811115610d5657610d55610d19565b5b602083019150836020820283011115610d7257610d71610d1e565b5b9250929050565b600080600060408486031215610d9257610d91610a3c565b5b6000610da086828701610d04565b935050602084013567ffffffffffffffff811115610dc157610dc0610a41565b5b610dcd86828701610d23565b92509250509250925092565b60008060008060808587031215610df357610df2610a3c565b5b6000610e0187828801610d04565b9450506020610e1287828801610a67565b9350506040610e2387828801610ac5565b9250506060610e3487828801610ac5565b91505092959194509250565b60008060008060808587031215610e5a57610e59610a3c565b5b6000610e6887828801610a67565b9450506020610e7987828801610ac5565b9350506040610e8a87828801610ac5565b9250506060610e9b87828801610a67565b91505092959194509250565b600067ffffffffffffffff821115610ec257610ec1610af5565b5b610ecb82610ae4565b9050602081019050919050565b6000610eeb610ee684610ea7565b610b55565b905082815260208101848484011115610f0757610f06610adf565b5b610f12848285610ba1565b509392505050565b600082601f830112610f2f57610f2e610ada565b5b8135610f3f848260208601610ed8565b91505092915050565b60008060008060808587031215610f6257610f61610a3c565b5b600085013567ffffffffffffffff811115610f8057610f7f610a41565b5b610f8c87828801610f1a565b945050602085013567ffffffffffffffff811115610fad57610fac610a41565b5b610fb987828801610f1a565b9350506040610fca87828801610a67565b9250506060610fdb87828801610ac5565b91505092959194509250565b600082825260208201905092915050565b7f496e76616c6964207369676e6174757265000000000000000000000000000000600082015250565b600061102e601183610fe7565b915061103982610ff8565b602082019050919050565b6000602082019050818103600083015261105d81611021565b9050919050565b7f4e487b7100000000000000000000000000000000000000000000000000000000600052600160045260246000fd5b7f4e487b7100000000000000000000000000000000000000000000000000000000600052603260045260246000fd5b600080fd5b60008235600160a0038336030381126110e3576110e26110c2565b5b80830191505092915050565b600080fd5b600080fd5b60006080828403121561110f5761110e6110ef565b5b6111196080610b55565b9050600061112984828501610a67565b600083015250602061113d84828501610ac5565b602083015250604061115184828501610ac5565b604083015250606061116584828501610a67565b60608301525092915050565b600060a08284031215611187576111866110ef565b5b6111916040610b55565b905060006111a1848285016110f9565b600083015250608082013567ffffffffffffffff8111156111c5576111c46110f4565b5b6111d184828501610bf2565b60208301525092915050565b60006111e93683611171565b9050919050565b6111f981610a9c565b82525050565b61120881610a46565b82525050565b600060608201905061122360008301866111f0565b61123060208301856111f0565b61123d60408301846111ff565b949350505050565b61124e81610cb7565b811461125957600080fd5b50565b60008151905061126b81611245565b92915050565b60006020828403121561128757611286610a3c565b5b60006112958482850161125c565b91505092915050565b7f4e487b7100000000000000000000000000000000000000000000000000000000600052601160045260246000fd5b60006112d882610a46565b91507fffffffffffffffffffffffffffffffffffffffffffffffffffffffffffffffff82141561130b5761130a61129e565b5b600182019050919050565b600060a08201905061132b6000830188610a08565b61133860208301876111ff565b61134560408301866111f0565b61135260608301856111f0565b61135f60808301846111ff565b9695505050505050565b600060a08201905061137e6000830188610a08565b61138b6020830187610a08565b6113986040830186610a08565b6113a560608301856111ff565b6113b260808301846111f0565b9695505050505050565b600081905092915050565b7f1901000000000000000000000000000000000000000000000000000000000000600082015250565b60006113fd6002836113bc565b9150611408826113c7565b600282019050919050565b6000819050919050565b61142e611429826109fe565b611413565b82525050565b600061143f826113f0565b915061144b828561141d565b60208201915061145b828461141d565b6020820191508190509392505050565b600060ff82169050919050565b60006114838261146b565b915061148e8361146b565b92508260ff038211156114a4576114a361129e565b5b828201905092915050565b6114b88161146b565b82525050565b60006080820190506114d36000830187610a08565b6114e060208301866114af565b6114ed6040830185610a08565b6114fa6060830184610a08565b9594505050505056fea2646970667358221220f406a174e553c7ca2d2a03c03eed7c861365df726fa67818476f5fc20b8f8c5e64736f6c63430008090033",
  "immutableReferences": {},
  "source": "pragma solidity ^0.8.4;\n\ncontract ECRecovery {\n\n    /**\n    * @dev Recover signer address from a message by using their signature\n    * @param hash bytes32 message, the hash is the signed message. What is recovered is the signer address.\n    * @param sig bytes signature, the signature is generated using web3.eth.sign()\n    */\n    function recover(bytes32 hash, bytes memory sig) internal pure returns (address) {\n        bytes32 r;\n        bytes32 s;\n        uint8 v;\n\n        //Check the signature length\n        if (sig.length != 65) {\n            return (address(0));\n        }\n\n        // Divide the signature in r, s and v variables\n        assembly {\n            r := mload(add(sig, 32))\n            s := mload(add(sig, 64))\n            v := byte(0, mload(add(sig, 96)))\n        }\n// Version of signature should be 27 or 28, but 0 and 1 are also possible versions\n        if (v < 27) {\n            v += 27;\n        }\n\n        // If the version is correct return the signer address\n        if (v != 27 && v != 28) {\n            return (address(0));\n        } else {\n            return ecrecover(hash, v, r, s);\n        }\n    }\n}\n\ninterface IERC20 {\n    function totalSupply() external view returns (uint256);\n    function balanceOf(address account) external view returns (uint256);\n    function allowance(address owner, address spender) external view returns (uint256);\n\n    function transfer(address recipient, uint256 amount) external returns (bool);\n    function approve(address spender, uint256 amount) external returns (bool);\n    function transferFrom(address sender, address recipient, uint256 amount) external returns (bool);\n\n\n    event Transfer(address indexed from, address indexed to, uint256 value);\n    event Approval(address indexed owner, address indexed spender, uint256 value);\n}\n\n\ncontract MattAuction is ECRecovery {\nconstructor() public {\n}\n\n\n\n\n    struct Bid {\n        uint256 nft;\n        address bidderAddress;\n        address currencyTokenAddress;\n        uint256 currencyTokenAmount;\n    }\n\n    struct SignedBid {\n        Bid bid;\n        bytes sig;\n    }\n\n    struct Auction {\n        uint endTime;\n        address owner;\n        address currencyTokenAddress;\n        bool open;\n    }\n\n    mapping (bytes32 => Auction) auctions;\n\n    function startAuction (bytes32 nftData, uint endTime, address token, address owner) public {\n       auctions[nftData] = Auction(endTime, owner, token, true);\n    }\n\n    function endAuction (bytes32 nftData, SignedBid[] calldata signedBids) public {\n        Auction memory auction = auctions[nftData];\n\n        // Enforce only the auction owner can end it\n        assert(msg.sender == auction.owner);\n\n        // Assume the lowest (price-setting) bid is first (enforce in the loop)\n        uint256 price = signedBids[0].bid.currencyTokenAmount;\n\n        for (uint i=0; i < signedBids.length; i++) {\n            SignedBid memory signed = signedBids[i];\n\n            // Enforce all bids are above or equal to the first (low) bid price:\n            assert(signed.bid.currencyTokenAmount >= price);\n\n            // Ensure the bid meant to be in the auction's currency.\n            // This data was redundant to sign, but improves end-user legibility.\n            assert(signed.bid.currencyTokenAddress == auction.currencyTokenAddress);\n\n            // Verify signature\n            assert(verifyBidSignature(signed.bid.nft, signed.bid.bidderAddress, signed.bid.currencyTokenAddress, signed.bid.currencyTokenAmount, signed.sig));\n\n            // Transfer payment\n            IERC20(auction.currencyTokenAddress).transferFrom(signed.bid.currencyTokenAddress, auction.owner, price);\n\n            // TODO: Issue NFT\n        }\n\n        auction.open = false;\n        auctions[nftData] = auction;\n    }\n\n    bytes32 constant PACKET_TYPEHASH = keccak256(\n      \"Bid(uint256 nft,address bidderAddress,address currencyTokenAddress,uint256 currencyTokenAmount)\"\n    );\n\n    bytes32 constant EIP712DOMAIN_TYPEHASH = keccak256(\n        \"EIP712Domain(string name,string version,uint256 chainId,address verifyingContract)\"\n    );\n\n    function getDomainTypehash() public pure returns (bytes32) {\n        return EIP712DOMAIN_TYPEHASH;\n    }\n\n    function getEIP712DomainHash(string memory contractName, string memory version, uint256 chainId, address verifyingContract) public pure returns (bytes32) {\n      return keccak256(abi.encode(\n        EIP712DOMAIN_TYPEHASH,\n        keccak256(bytes(contractName)),\n        keccak256(bytes(version)),\n        chainId,\n        verifyingContract\n      ));\n    }\n\n    function getPacketTypehash()  public pure returns (bytes32) {\n      return PACKET_TYPEHASH;\n    }\n\n    function getPacketHash(\n      uint256 nft,\n      address bidderAddress,\n      address currencyTokenAddress,\n      uint256 currencyTokenAmount\n    ) public pure returns (bytes32) {\n      return keccak256(abi.encode(\n        PACKET_TYPEHASH,\n        nft,\n        bidderAddress,\n        currencyTokenAddress,\n        currencyTokenAmount\n      ));\n    }\n\n    function getTypedDataHash(uint256 nft,address bidderAddress,address currencyTokenAddress,uint256 currencyTokenAmount) public view returns (bytes32) {\n      bytes32 digest = keccak256(abi.encodePacked(\n        \"\\x19\\x01\",\n        getEIP712DomainHash('MattAuction','1',block.chainid,address(this)),\n        getPacketHash(nft,bidderAddress,currencyTokenAddress,currencyTokenAmount)\n      ));\n      return digest;\n    }\n\n    function verifyBidSignature(uint256 nft,address bidderAddress,address currencyTokenAddress,uint256 currencyTokenAmount,bytes memory offchainSignature) public view returns (bool) {\n        bytes32 sigHash = getTypedDataHash(nft,bidderAddress,currencyTokenAddress,currencyTokenAmount);\n        address recoveredSignatureSigner = recover(sigHash,offchainSignature);\n        require(bidderAddress == recoveredSignatureSigner, 'Invalid signature');\n        //DO SOME FUN STUFF HERE\n        return true;\n    }\n\n}\n",
  "sourcePath": "/Users/danfinlay/Documents/matt-auction-truffle/contracts/MattAuction.sol",
  "compiler": {
    "name": "solc",
    "version": "0.8.9+commit.e5eed63a.Emscripten.clang"
  },
  "schemaVersion": "3.4.0",
  "updatedAt": "2021-10-07T00:06:16.041Z",
  "devdoc": {
    "kind": "dev",
    "methods": {},
    "version": 1
  },
  "userdoc": {
    "kind": "user",
    "methods": {},
    "version": 1
  }
}